{"abi":[{"type":"constructor","inputs":[{"name":"_countryList","type":"address","internalType":"contract ICountryList"},{"name":"_autoCollectAddress","type":"address","internalType":"address payable"},{"name":"_lpFeeReceiver","type":"address","internalType":"address payable"},{"name":"_collectFeeReceiver","type":"address","internalType":"address payable"}],"stateMutability":"nonpayable"},{"type":"function","name":"AUTO_COLLECT_ACCOUNT","inputs":[],"outputs":[{"name":"","type":"address","internalType":"address"}],"stateMutability":"view"},{"type":"function","name":"COUNTRY_LIST","inputs":[],"outputs":[{"name":"","type":"address","internalType":"contract ICountryList"}],"stateMutability":"view"},{"type":"function","name":"ETERNAL_LOCK","inputs":[],"outputs":[{"name":"","type":"uint256","internalType":"uint256"}],"stateMutability":"view"},{"type":"function","name":"FEE_ADDR_COLLECT","inputs":[],"outputs":[{"name":"","type":"address","internalType":"address payable"}],"stateMutability":"view"},{"type":"function","name":"FEE_ADDR_LP","inputs":[],"outputs":[{"name":"","type":"address","internalType":"address payable"}],"stateMutability":"view"},{"type":"function","name":"FEE_DENOMINATOR","inputs":[],"outputs":[{"name":"","type":"uint256","internalType":"uint256"}],"stateMutability":"view"},{"type":"function","name":"FEE_RESOLVER","inputs":[],"outputs":[{"name":"","type":"address","internalType":"contract IFeeResolver"}],"stateMutability":"view"},{"type":"function","name":"LOCKS","inputs":[{"name":"","type":"uint256","internalType":"uint256"}],"outputs":[{"name":"lock_id","type":"uint256","internalType":"uint256"},{"name":"nftPositionManager","type":"address","internalType":"contract INonfungiblePositionManager"},{"name":"pool","type":"address","internalType":"address"},{"name":"nft_id","type":"uint256","internalType":"uint256"},{"name":"owner","type":"address","internalType":"address"},{"name":"pendingOwner","type":"address","internalType":"address"},{"name":"additionalCollector","type":"address","internalType":"address"},{"name":"collectAddress","type":"address","internalType":"address"},{"name":"unlockDate","type":"uint256","internalType":"uint256"},{"name":"countryCode","type":"uint16","internalType":"uint16"},{"name":"ucf","type":"uint256","internalType":"uint256"}],"stateMutability":"view"},{"type":"function","name":"MIGRATE_IN","inputs":[],"outputs":[{"name":"","type":"address","internalType":"address"}],"stateMutability":"view"},{"type":"function","name":"MIGRATOR","inputs":[],"outputs":[{"name":"","type":"address","internalType":"contract IMigrateV3NFT"}],"stateMutability":"view"},{"type":"function","name":"NONCE","inputs":[],"outputs":[{"name":"","type":"uint256","internalType":"uint256"}],"stateMutability":"view"},{"type":"function","name":"acceptLockOwnership","inputs":[{"name":"_lockId","type":"uint256","internalType":"uint256"}],"outputs":[],"stateMutability":"nonpayable"},{"type":"function","name":"acceptOwnership","inputs":[],"outputs":[],"stateMutability":"nonpayable"},{"type":"function","name":"addOrEditFee","inputs":[{"name":"_name","type":"string","internalType":"string"},{"name":"_lpFee","type":"uint256","internalType":"uint256"},{"name":"_collectFee","type":"uint256","internalType":"uint256"},{"name":"_flatFee","type":"uint256","internalType":"uint256"},{"name":"_flatFeeToken","type":"address","internalType":"address"}],"outputs":[],"stateMutability":"nonpayable"},{"type":"function","name":"adminRefundERC20","inputs":[{"name":"_token","type":"address","internalType":"address"},{"name":"_receiver","type":"address","internalType":"address"},{"name":"_amount","type":"uint256","internalType":"uint256"}],"outputs":[],"stateMutability":"nonpayable"},{"type":"function","name":"adminRefundEth","inputs":[{"name":"_amount","type":"uint256","internalType":"uint256"},{"name":"_receiver","type":"address","internalType":"address payable"}],"outputs":[],"stateMutability":"nonpayable"},{"type":"function","name":"collect","inputs":[{"name":"_lockId","type":"uint256","internalType":"uint256"},{"name":"_recipient","type":"address","internalType":"address"},{"name":"_amount0Max","type":"uint128","internalType":"uint128"},{"name":"_amount1Max","type":"uint128","internalType":"uint128"}],"outputs":[{"name":"amount0","type":"uint256","internalType":"uint256"},{"name":"amount1","type":"uint256","internalType":"uint256"},{"name":"fee0","type":"uint256","internalType":"uint256"},{"name":"fee1","type":"uint256","internalType":"uint256"}],"stateMutability":"nonpayable"},{"type":"function","name":"decreaseLiquidity","inputs":[{"name":"_lockId","type":"uint256","internalType":"uint256"},{"name":"params","type":"tuple","internalType":"struct INonfungiblePositionManager.DecreaseLiquidityParams","components":[{"name":"tokenId","type":"uint256","internalType":"uint256"},{"name":"liquidity","type":"uint128","internalType":"uint128"},{"name":"amount0Min","type":"uint256","internalType":"uint256"},{"name":"amount1Min","type":"uint256","internalType":"uint256"},{"name":"deadline","type":"uint256","internalType":"uint256"}]}],"outputs":[{"name":"amount0","type":"uint256","internalType":"uint256"},{"name":"amount1","type":"uint256","internalType":"uint256"}],"stateMutability":"payable"},{"type":"function","name":"getAmountsForLiquidity","inputs":[{"name":"currentTick","type":"int24","internalType":"int24"},{"name":"tickLower","type":"int24","internalType":"int24"},{"name":"tickHigher","type":"int24","internalType":"int24"},{"name":"liquidity","type":"uint128","internalType":"uint128"}],"outputs":[{"name":"amount0","type":"uint256","internalType":"uint256"},{"name":"amount1","type":"uint256","internalType":"uint256"}],"stateMutability":"pure"},{"type":"function","name":"getFee","inputs":[{"name":"_name","type":"string","internalType":"string"}],"outputs":[{"name":"","type":"tuple","internalType":"struct IUNCX_ProofOfReservesV2_UniV3.FeeStruct","components":[{"name":"name","type":"string","internalType":"string"},{"name":"lpFee","type":"uint256","internalType":"uint256"},{"name":"collectFee","type":"uint256","internalType":"uint256"},{"name":"flatFee","type":"uint256","internalType":"uint256"},{"name":"flatFeeToken","type":"address","internalType":"address"}]}],"stateMutability":"view"},{"type":"function","name":"getFeeOptionAtIndex","inputs":[{"name":"_index","type":"uint256","internalType":"uint256"}],"outputs":[{"name":"","type":"tuple","internalType":"struct IUNCX_ProofOfReservesV2_UniV3.FeeStruct","components":[{"name":"name","type":"string","internalType":"string"},{"name":"lpFee","type":"uint256","internalType":"uint256"},{"name":"collectFee","type":"uint256","internalType":"uint256"},{"name":"flatFee","type":"uint256","internalType":"uint256"},{"name":"flatFeeToken","type":"address","internalType":"address"}]}],"stateMutability":"view"},{"type":"function","name":"getFeeOptionLength","inputs":[],"outputs":[{"name":"","type":"uint256","internalType":"uint256"}],"stateMutability":"view"},{"type":"function","name":"getLock","inputs":[{"name":"_lockId","type":"uint256","internalType":"uint256"}],"outputs":[{"name":"_lock","type":"tuple","internalType":"struct IUNCX_ProofOfReservesV2_UniV3.Lock","components":[{"name":"lock_id","type":"uint256","internalType":"uint256"},{"name":"nftPositionManager","type":"address","internalType":"contract INonfungiblePositionManager"},{"name":"pool","type":"address","internalType":"address"},{"name":"nft_id","type":"uint256","internalType":"uint256"},{"name":"owner","type":"address","internalType":"address"},{"name":"pendingOwner","type":"address","internalType":"address"},{"name":"additionalCollector","type":"address","internalType":"address"},{"name":"collectAddress","type":"address","internalType":"address"},{"name":"unlockDate","type":"uint256","internalType":"uint256"},{"name":"countryCode","type":"uint16","internalType":"uint16"},{"name":"ucf","type":"uint256","internalType":"uint256"}]}],"stateMutability":"view"},{"type":"function","name":"getLocksLength","inputs":[],"outputs":[{"name":"","type":"uint256","internalType":"uint256"}],"stateMutability":"view"},{"type":"function","name":"getNumUserLocks","inputs":[{"name":"_user","type":"address","internalType":"address"}],"outputs":[{"name":"","type":"uint256","internalType":"uint256"}],"stateMutability":"view"},{"type":"function","name":"getUserLockAtIndex","inputs":[{"name":"_user","type":"address","internalType":"address"},{"name":"_index","type":"uint256","internalType":"uint256"}],"outputs":[{"name":"","type":"tuple","internalType":"struct IUNCX_ProofOfReservesV2_UniV3.Lock","components":[{"name":"lock_id","type":"uint256","internalType":"uint256"},{"name":"nftPositionManager","type":"address","internalType":"contract INonfungiblePositionManager"},{"name":"pool","type":"address","internalType":"address"},{"name":"nft_id","type":"uint256","internalType":"uint256"},{"name":"owner","type":"address","internalType":"address"},{"name":"pendingOwner","type":"address","internalType":"address"},{"name":"additionalCollector","type":"address","internalType":"address"},{"name":"collectAddress","type":"address","internalType":"address"},{"name":"unlockDate","type":"uint256","internalType":"uint256"},{"name":"countryCode","type":"uint16","internalType":"uint16"},{"name":"ucf","type":"uint256","internalType":"uint256"}]}],"stateMutability":"view"},{"type":"function","name":"increaseLiquidity","inputs":[{"name":"_lockId","type":"uint256","internalType":"uint256"},{"name":"params","type":"tuple","internalType":"struct INonfungiblePositionManager.IncreaseLiquidityParams","components":[{"name":"tokenId","type":"uint256","internalType":"uint256"},{"name":"amount0Desired","type":"uint256","internalType":"uint256"},{"name":"amount1Desired","type":"uint256","internalType":"uint256"},{"name":"amount0Min","type":"uint256","internalType":"uint256"},{"name":"amount1Min","type":"uint256","internalType":"uint256"},{"name":"deadline","type":"uint256","internalType":"uint256"}]}],"outputs":[{"name":"liquidity","type":"uint128","internalType":"uint128"},{"name":"amount0","type":"uint256","internalType":"uint256"},{"name":"amount1","type":"uint256","internalType":"uint256"}],"stateMutability":"payable"},{"type":"function","name":"lock","inputs":[{"name":"params","type":"tuple","internalType":"struct IUNCX_ProofOfReservesV2_UniV3.LockParams","components":[{"name":"nftPositionManager","type":"address","internalType":"contract INonfungiblePositionManager"},{"name":"nft_id","type":"uint256","internalType":"uint256"},{"name":"dustRecipient","type":"address","internalType":"address"},{"name":"owner","type":"address","internalType":"address"},{"name":"additionalCollector","type":"address","internalType":"address"},{"name":"collectAddress","type":"address","internalType":"address"},{"name":"unlockDate","type":"uint256","internalType":"uint256"},{"name":"countryCode","type":"uint16","internalType":"uint16"},{"name":"feeName","type":"string","internalType":"string"},{"name":"r","type":"bytes[]","internalType":"bytes[]"}]}],"outputs":[{"name":"","type":"uint256","internalType":"uint256"}],"stateMutability":"payable"},{"type":"function","name":"migrate","inputs":[{"name":"_lockId","type":"uint256","internalType":"uint256"}],"outputs":[],"stateMutability":"nonpayable"},{"type":"function","name":"onERC721Received","inputs":[{"name":"operator","type":"address","internalType":"address"},{"name":"from","type":"address","internalType":"address"},{"name":"tokenId","type":"uint256","internalType":"uint256"},{"name":"data","type":"bytes","internalType":"bytes"}],"outputs":[{"name":"","type":"bytes4","internalType":"bytes4"}],"stateMutability":"pure"},{"type":"function","name":"owner","inputs":[],"outputs":[{"name":"","type":"address","internalType":"address"}],"stateMutability":"view"},{"type":"function","name":"pendingOwner","inputs":[],"outputs":[{"name":"","type":"address","internalType":"address"}],"stateMutability":"view"},{"type":"function","name":"relock","inputs":[{"name":"_lockId","type":"uint256","internalType":"uint256"},{"name":"_unlockDate","type":"uint256","internalType":"uint256"}],"outputs":[],"stateMutability":"nonpayable"},{"type":"function","name":"removeFee","inputs":[{"name":"_name","type":"string","internalType":"string"}],"outputs":[],"stateMutability":"nonpayable"},{"type":"function","name":"renounceOwnership","inputs":[],"outputs":[],"stateMutability":"nonpayable"},{"type":"function","name":"setAdditionalCollector","inputs":[{"name":"_lockId","type":"uint256","internalType":"uint256"},{"name":"_additionalCollector","type":"address","internalType":"address"}],"outputs":[],"stateMutability":"nonpayable"},{"type":"function","name":"setCollectAddress","inputs":[{"name":"_lockId","type":"uint256","internalType":"uint256"},{"name":"_collectAddress","type":"address","internalType":"address"}],"outputs":[],"stateMutability":"nonpayable"},{"type":"function","name":"setFeeParams","inputs":[{"name":"_autoCollectAccount","type":"address","internalType":"address"},{"name":"_lpFeeReceiver","type":"address","internalType":"address payable"},{"name":"_collectFeeReceiver","type":"address","internalType":"address payable"}],"outputs":[],"stateMutability":"nonpayable"},{"type":"function","name":"setFeeResolver","inputs":[{"name":"_resolver","type":"address","internalType":"contract IFeeResolver"}],"outputs":[],"stateMutability":"nonpayable"},{"type":"function","name":"setMigrateInContract","inputs":[{"name":"_migrateIn","type":"address","internalType":"address"}],"outputs":[],"stateMutability":"nonpayable"},{"type":"function","name":"setMigrator","inputs":[{"name":"_migrator","type":"address","internalType":"address"}],"outputs":[],"stateMutability":"nonpayable"},{"type":"function","name":"setUCF","inputs":[{"name":"_lockId","type":"uint256","internalType":"uint256"},{"name":"_ucf","type":"uint256","internalType":"uint256"}],"outputs":[],"stateMutability":"nonpayable"},{"type":"function","name":"tickSpacingToMaxTick","inputs":[{"name":"tickSpacing","type":"int24","internalType":"int24"}],"outputs":[{"name":"maxTick","type":"int24","internalType":"int24"}],"stateMutability":"pure"},{"type":"function","name":"transferLockOwnership","inputs":[{"name":"_lockId","type":"uint256","internalType":"uint256"},{"name":"_newOwner","type":"address","internalType":"address"}],"outputs":[],"stateMutability":"nonpayable"},{"type":"function","name":"transferOwnership","inputs":[{"name":"newOwner","type":"address","internalType":"address"}],"outputs":[],"stateMutability":"nonpayable"},{"type":"function","name":"withdraw","inputs":[{"name":"_lockId","type":"uint256","internalType":"uint256"},{"name":"_receiver","type":"address","internalType":"address"}],"outputs":[],"stateMutability":"nonpayable"},{"type":"event","name":"OwnershipTransferStarted","inputs":[{"name":"previousOwner","type":"address","indexed":true,"internalType":"address"},{"name":"newOwner","type":"address","indexed":true,"internalType":"address"}],"anonymous":false},{"type":"event","name":"OwnershipTransferred","inputs":[{"name":"previousOwner","type":"address","indexed":true,"internalType":"address"},{"name":"newOwner","type":"address","indexed":true,"internalType":"address"}],"anonymous":false},{"type":"event","name":"onAddFee","inputs":[{"name":"nameHash","type":"bytes32","indexed":false,"internalType":"bytes32"},{"name":"name","type":"string","indexed":false,"internalType":"string"},{"name":"lpFee","type":"uint256","indexed":false,"internalType":"uint256"},{"name":"collectFee","type":"uint256","indexed":false,"internalType":"uint256"},{"name":"flatFee","type":"uint256","indexed":false,"internalType":"uint256"},{"name":"flatFeeToken","type":"address","indexed":false,"internalType":"address"}],"anonymous":false},{"type":"event","name":"onDecreaseLiquidity","inputs":[{"name":"lockId","type":"uint256","indexed":false,"internalType":"uint256"}],"anonymous":false},{"type":"event","name":"onEditFee","inputs":[{"name":"nameHash","type":"bytes32","indexed":false,"internalType":"bytes32"},{"name":"name","type":"string","indexed":false,"internalType":"string"},{"name":"lpFee","type":"uint256","indexed":false,"internalType":"uint256"},{"name":"collectFee","type":"uint256","indexed":false,"internalType":"uint256"},{"name":"flatFee","type":"uint256","indexed":false,"internalType":"uint256"},{"name":"flatFeeToken","type":"address","indexed":false,"internalType":"address"}],"anonymous":false},{"type":"event","name":"onIncreaseLiquidity","inputs":[{"name":"lockId","type":"uint256","indexed":false,"internalType":"uint256"}],"anonymous":false},{"type":"event","name":"onLock","inputs":[{"name":"lock_id","type":"uint256","indexed":false,"internalType":"uint256"},{"name":"nftPositionManager","type":"address","indexed":false,"internalType":"address"},{"name":"nft_id","type":"uint256","indexed":false,"internalType":"uint256"},{"name":"owner","type":"address","indexed":false,"internalType":"address"},{"name":"additionalCollector","type":"address","indexed":false,"internalType":"address"},{"name":"collectAddress","type":"address","indexed":false,"internalType":"address"},{"name":"unlockDate","type":"uint256","indexed":false,"internalType":"uint256"},{"name":"countryCode","type":"uint16","indexed":false,"internalType":"uint16"},{"name":"collectFee","type":"uint256","indexed":false,"internalType":"uint256"},{"name":"poolAddress","type":"address","indexed":false,"internalType":"address"},{"name":"position","type":"tuple","indexed":false,"internalType":"struct IUNCX_ProofOfReservesV2_UniV3.Position","components":[{"name":"nonce","type":"uint96","internalType":"uint96"},{"name":"operator","type":"address","internalType":"address"},{"name":"token0","type":"address","internalType":"address"},{"name":"token1","type":"address","internalType":"address"},{"name":"fee","type":"uint24","internalType":"uint24"},{"name":"tickLower","type":"int24","internalType":"int24"},{"name":"tickUpper","type":"int24","internalType":"int24"},{"name":"liquidity","type":"uint128","internalType":"uint128"},{"name":"feeGrowthInside0LastX128","type":"uint256","internalType":"uint256"},{"name":"feeGrowthInside1LastX128","type":"uint256","internalType":"uint256"},{"name":"tokensOwed0","type":"uint128","internalType":"uint128"},{"name":"tokensOwed1","type":"uint128","internalType":"uint128"}]}],"anonymous":false},{"type":"event","name":"onLockOwnershipTransferStarted","inputs":[{"name":"lockId","type":"uint256","indexed":false,"internalType":"uint256"},{"name":"currentOwner","type":"address","indexed":false,"internalType":"address"},{"name":"pendingOwner","type":"address","indexed":false,"internalType":"address"}],"anonymous":false},{"type":"event","name":"onMigrate","inputs":[{"name":"lockId","type":"uint256","indexed":false,"internalType":"uint256"}],"anonymous":false},{"type":"event","name":"onRelock","inputs":[{"name":"lockId","type":"uint256","indexed":false,"internalType":"uint256"},{"name":"unlockDate","type":"uint256","indexed":false,"internalType":"uint256"}],"anonymous":false},{"type":"event","name":"onRemoveFee","inputs":[{"name":"nameHash","type":"bytes32","indexed":false,"internalType":"bytes32"}],"anonymous":false},{"type":"event","name":"onSetAdditionalCollector","inputs":[{"name":"lockId","type":"uint256","indexed":false,"internalType":"uint256"},{"name":"additionalCollector","type":"address","indexed":false,"internalType":"address"}],"anonymous":false},{"type":"event","name":"onSetCollectAddress","inputs":[{"name":"lockId","type":"uint256","indexed":false,"internalType":"uint256"},{"name":"collectAddress","type":"address","indexed":false,"internalType":"address"}],"anonymous":false},{"type":"event","name":"onSetMigrator","inputs":[{"name":"migrator","type":"address","indexed":false,"internalType":"address"}],"anonymous":false},{"type":"event","name":"onSetUCF","inputs":[{"name":"lockId","type":"uint256","indexed":false,"internalType":"uint256"},{"name":"ucf","type":"uint256","indexed":false,"internalType":"uint256"}],"anonymous":false},{"type":"event","name":"onTransferLockOwnership","inputs":[{"name":"lockId","type":"uint256","indexed":false,"internalType":"uint256"},{"name":"oldOwner","type":"address","indexed":false,"internalType":"address"},{"name":"newOwner","type":"address","indexed":false,"internalType":"address"}],"anonymous":false},{"type":"event","name":"onWithdraw","inputs":[{"name":"lock_id","type":"uint256","indexed":false,"internalType":"uint256"},{"name":"owner","type":"address","indexed":false,"internalType":"address"},{"name":"receiver","type":"address","indexed":false,"internalType":"address"}],"anonymous":false}],"bytecode":{"object":"0x60806040526000600d55600019600e553480156200001c57600080fd5b5060405162005ebe38038062005ebe8339810160408190526200003f916200042f565b6200004a336200012b565b6001600255600a80546001600160a01b038087166001600160a01b0319928316179092556007805486841690831617815560088054868516908416179055600980549385169390921692909217905560408051808201909152908152661111519055531560ca1b6020820152620000c890603260c860008062000149565b60408051808201909152600381526204c56560ec1b6020820152620000f4906050606460008062000149565b60408051808201909152600381526204c4c560ec1b60208201526200012190601e61015e60008062000149565b50505050620006ad565b600180546001600160a01b03191690556200014681620002f1565b50565b6200015362000341565b600085604051602001620001689190620004bd565b60408051601f19818403018152828252805160209182012060a084018352898452838201899052838301889052606084018790526001600160a01b038616608085015260008181526003909252919020825191935082918190620001cd908262000580565b50602082015160018201556040820151600282015560608201516003820155608090910151600491820180546001600160a01b0319166001600160a01b03909216919091179055620002209083620003a2565b620002905762000232600483620003bf565b507f335d96fad821252e8298f51336937e44332b3731a3c3f249b2cdb77652b33e4f828260000151836020015184604001518560600151866080015160405162000282969594939291906200064c565b60405180910390a1620002e8565b7fdd151e7029525c623e7c09af0f71271bd7642edd1bf2f64d97bc552faba7c86d8282600001518360200151846040015185606001518660800151604051620002df969594939291906200064c565b60405180910390a15b50505050505050565b600080546001600160a01b038381166001600160a01b0319831681178455604051919092169283917f8be0079c531659141344cd1fd0a4f28419497f9722a3daafe3b4186f6b6457e09190a35050565b6000546001600160a01b03163314620003a05760405162461bcd60e51b815260206004820181905260248201527f4f776e61626c653a2063616c6c6572206973206e6f7420746865206f776e6572604482015260640160405180910390fd5b565b600081815260018301602052604081205415155b90505b92915050565b6000620003b6838360008181526001830160205260408120546200041057508154600181810184556000848152602080822090930184905584548482528286019093526040902091909155620003b9565b506000620003b9565b6001600160a01b03811681146200014657600080fd5b600080600080608085870312156200044657600080fd5b8451620004538162000419565b6020860151909450620004668162000419565b6040860151909350620004798162000419565b60608601519092506200048c8162000419565b939692955090935050565b60005b83811015620004b45781810151838201526020016200049a565b50506000910152565b60008251620004d181846020870162000497565b9190910192915050565b634e487b7160e01b600052604160045260246000fd5b600181811c908216806200050657607f821691505b6020821081036200052757634e487b7160e01b600052602260045260246000fd5b50919050565b601f8211156200057b57600081815260208120601f850160051c81016020861015620005565750805b601f850160051c820191505b81811015620005775782815560010162000562565b5050505b505050565b81516001600160401b038111156200059c576200059c620004db565b620005b481620005ad8454620004f1565b846200052d565b602080601f831160018114620005ec5760008415620005d35750858301515b600019600386901b1c1916600185901b17855562000577565b600085815260208120601f198616915b828110156200061d57888601518255948401946001909101908401620005fc565b50858210156200063c5787850151600019600388901b60f8161c191681555b5050505050600190811b01905550565b86815260c06020820152600086518060c0840152620006738160e0850160208b0162000497565b604083019690965250606081019390935260808301919091526001600160a01b031660a082015260e0601f909201601f1916010192915050565b61580180620006bd6000396000f3fe60806040526004361061027c5760003560e01c80639f185a0b1161014f578063d68f4dd1116100c1578063ed1eee681161007a578063ed1eee68146108ca578063ef248944146108ea578063f11478f81461090a578063f2fde38b1461091d578063fae2e6481461093d578063fe0ab5611461095d57600080fd5b8063d68f4dd11461080d578063d73792a91461082d578063e091dd1a14610843578063e30c397814610859578063e526dd4814610877578063e7a7bdfe146108aa57600080fd5b8063b2fb30cb11610113578063b2fb30cb14610675578063b707a28814610695578063c7a85b40146106b5578063cf0d5af3146106d5578063d1f55d45146107cd578063d5fdb732146107ed57600080fd5b80639f185a0b146105c0578063a339df12146105ed578063a35a96b814610622578063ab9ae18014610635578063ac4521c61461065557600080fd5b8063454b0608116101f357806375eb8e69116101ac57806375eb8e691461050a57806379ba50971461052057806383fb69ad146105355780638b52a6ee146105625780638da5cb5b146105825780639ecd7472146105a057600080fd5b8063454b06081461046057806345908a4714610480578063489c18b0146104a05780635a04fb69146104b5578063611f6fe6146104d5578063715018a6146104f557600080fd5b8063150b7a0211610245578063150b7a021461034357806318694155146103885780631f113fc3146103c057806323cf3118146103e0578063260e12b014610400578063280f38671461044057600080fd5b8062f714ce14610281578063038975a1146102a3578063066b58c7146102cb57806309564ab0146103035780630ae300bf14610323575b600080fd5b34801561028d57600080fd5b506102a161029c3660046146ea565b61097d565b005b3480156102af57600080fd5b506102b8610c4a565b6040519081526020015b60405180910390f35b3480156102d757600080fd5b506007546102eb906001600160a01b031681565b6040516001600160a01b0390911681526020016102c2565b34801561030f57600080fd5b506102a161031e36600461471a565b610c5b565b34801561032f57600080fd5b506008546102eb906001600160a01b031681565b34801561034f57600080fd5b5061036f61035e366004614765565b630a85bd0160e11b95945050505050565b6040516001600160e01b031990911681526020016102c2565b61039b610396366004614804565b610ca2565b604080516001600160801b0390941684526020840192909252908201526060016102c2565b3480156103cc57600080fd5b506009546102eb906001600160a01b031681565b3480156103ec57600080fd5b506102a16103fb36600461483c565b610f4a565b34801561040c57600080fd5b5061042061041b36600461486e565b610fa6565b6040805194855260208501939093529183015260608201526080016102c2565b34801561044c57600080fd5b506102a161045b3660046148c1565b610fdf565b34801561046c57600080fd5b506102a161047b366004614902565b611009565b34801561048c57600080fd5b506102a161049b366004614902565b6112cf565b3480156104ac57600080fd5b50600d546102b8565b3480156104c157600080fd5b506102a16104d03660046146ea565b6113c7565b3480156104e157600080fd5b506102b86104f036600461483c565b61149c565b34801561050157600080fd5b506102a16114c3565b34801561051657600080fd5b506102b8600e5481565b34801561052c57600080fd5b506102a16114d7565b34801561054157600080fd5b50610555610550366004614902565b61154e565b6040516102c2919061496b565b34801561056e57600080fd5b506102a161057d36600461483c565b611648565b34801561058e57600080fd5b506000546001600160a01b03166102eb565b3480156105ac57600080fd5b50600b546102eb906001600160a01b031681565b3480156105cc57600080fd5b506105e06105db3660046149c3565b611672565b6040516102c291906149ef565b3480156105f957600080fd5b5061060d610608366004614ae1565b61174d565b604080519283526020830191909152016102c2565b6102b8610630366004614b22565b611782565b34801561064157600080fd5b506102a16106503660046146ea565b61227d565b34801561066157600080fd5b506102a16106703660046146ea565b6122ce565b34801561068157600080fd5b506102a1610690366004614b5e565b612343565b3480156106a157600080fd5b506102a16106b03660046146ea565b612467565b3480156106c157600080fd5b50600c546102eb906001600160a01b031681565b3480156106e157600080fd5b506107616106f0366004614902565b600f60205260009081526040902080546001820154600283015460038401546004850154600586015460068701546007880154600889015460098a0154600a909a015498996001600160a01b039889169997891698969795871696948516959385169490921692909161ffff16908b565b604080519b8c526001600160a01b039a8b1660208d0152988a16988b019890985260608a0196909652938716608089015291861660a0880152851660c087015290931660e085015261010084019290925261ffff909116610120830152610140820152610160016102c2565b3480156107d957600080fd5b506006546102eb906001600160a01b031681565b3480156107f957600080fd5b506102a1610808366004614c6e565b612521565b34801561081957600080fd5b506105e0610828366004614902565b612616565b34801561083957600080fd5b506102b861271081565b34801561084f57600080fd5b506102b8600d5481565b34801561086557600080fd5b506001546001600160a01b03166102eb565b34801561088357600080fd5b50610897610892366004614ca3565b6126c5565b60405160029190910b81526020016102c2565b3480156108b657600080fd5b506102a16108c5366004614cc0565b6126df565b3480156108d657600080fd5b506105556108e5366004614c6e565b612877565b3480156108f657600080fd5b506102a1610905366004614b5e565b6129d2565b61060d610918366004614d2f565b612a65565b34801561092957600080fd5b506102a161093836600461483c565b612d38565b34801561094957600080fd5b506102a161095836600461483c565b612da9565b34801561096957600080fd5b50600a546102eb906001600160a01b031681565b610985612dd3565b61098e82612e2a565b6000828152600f60209081526040918290208251610160810184528154815260018201546001600160a01b03908116938201939093526002820154831693810193909352600381015460608401526004810154821660808401526005810154821660a08401526006810154821660c0840152600781015490911660e083015260088101546101008301819052600982015461ffff16610120840152600a90910154610140830152600e549003610a7a5760405162461bcd60e51b815260206004820152600c60248201526b455445524e414c5f4c4f434b60a01b60448201526064015b60405180910390fd5b4281610100015110610ab85760405162461bcd60e51b81526020600482015260076024820152661393d50816515560ca1b6044820152606401610a71565b61014081015115610adb57610ad683836001600160801b0380612eed565b505050505b60208101516060820151604051632142170760e11b81523060048201526001600160a01b03858116602483015260448201929092529116906342842e0e90606401600060405180830381600087803b158015610b3657600080fd5b505af1158015610b4a573d6000803e3d6000fd5b50505060808201516001600160a01b03166000908152601060205260409020610b749150846132bd565b506080810151604080518581526001600160a01b03928316602082015291841682820152517fcf3f38c6e10e7fa2c0a2d09ff592596efa8ea3865dd7aabb9bff9c5189c607a89181900360600190a1506000828152600f602052604081208181556001810180546001600160a01b0319908116909155600282018054821690556003820183905560048201805482169055600582018054821690556006820180548216905560078201805490911690556008810182905560098101805461ffff19169055600a0155610c466001600255565b5050565b6000610c5660046132d0565b905090565b610c636132da565b600780546001600160a01b039485166001600160a01b031991821617909155600880549385169382169390931790925560098054919093169116179055565b6000806000610caf612dd3565b6000858152600f60209081526040918290208251610160810184528154815260018201546001600160a01b039081169382019390935260028201548316938101939093526003810154606084018190526004820154831660808501526005820154831660a08501526006820154831660c0850152600782015490921660e08401526008810154610100840152600981015461ffff16610120840152600a0154610140830152853514610d8c5760405162461bcd60e51b815260206004820152600660248201526513919508125160d21b6044820152606401610a71565b60008082602001516001600160a01b03166399fbab8884606001516040518263ffffffff1660e01b8152600401610dc591815260200190565b61018060405180830381865afa158015610de3573d6000803e3d6000fd5b505050506040513d601f19601f82011682018060405250810190610e079190614d8d565b5050505050505050935093505050610e258233308a60200135613334565b610e358133308a60400135613334565b610e48828460200151896020013561343e565b610e5b818460200151896040013561343e565b6020808401516040805163219f5d1760e01b81528a356004820152928a013560248401528901356044830152606089013560648301526080890135608483015260a089013560a48301526001600160a01b03169063219f5d179060c4016060604051808303816000875af1158015610ed7573d6000803e3d6000fd5b505050506040513d601f19601f82011682018060405250810190610efb9190614e6e565b6040518b815292985090965094507f38f5d789b3e0e71e68d20081e98d4b02ae7ecab7482b6634306b2261e90f806f9060200160405180910390a1505050610f436001600255565b9250925092565b610f526132da565b600b80546001600160a01b0319166001600160a01b0383169081179091556040519081527f48af0f3916eee80364290b1aca1b04532ba7394a23ceeb066b5df1aa9c5b51c49060200160405180910390a150565b600080600080610fb4612dd3565b610fc088888888612eed565b92965090945092509050610fd46001600255565b945094509450949050565b610fe76132da565b610fef612dd3565b610ffa83838361353e565b6110046001600255565b505050565b611011612dd3565b600b546001600160a01b03166110535760405162461bcd60e51b81526020600482015260076024820152661393d50814d15560ca1b6044820152606401610a71565b61105c81612e2a565b6000818152600f60209081526040918290208251610160810184528154815260018201546001600160a01b039081169382018490526002830154811682860152600383015460608301819052600480850154831660808501526005850154831660a08501526006850154831660c08501526007850154831660e08501526008850154610100850152600985015461ffff16610120850152600a90940154610140840152600b54955163095ea7b360e01b8152959091169285019290925260248401919091529163095ea7b390604401600060405180830381600087803b15801561114557600080fd5b505af1158015611159573d6000803e3d6000fd5b5050600b546020840151606085015160405163277c45f560e11b8152600481018890526001600160a01b039283166024820152604481019190915291169250634ef88bea91506064016020604051808303816000875af11580156111c1573d6000803e3d6000fd5b505050506040513d601f19601f820116820180604052508101906111e59190614ea5565b5060808101516001600160a01b0316600090815260106020526040902061120c90836132bd565b506000828152600f60205260408082208281556001810180546001600160a01b0319908116909155600282018054821690556003820184905560048201805482169055600582018054821690556006820180548216905560078201805490911690556008810183905560098101805461ffff19169055600a0191909155517f97923ecdf32419caa09669588eaa60fcc1c41069814b4f4f52ec31e9fdec1aea906112b99084815260200190565b60405180910390a1506112cc6001600255565b50565b6112d7612dd3565b6000818152600f6020526040902060058101546001600160a01b031633146113115760405162461bcd60e51b8152600401610a7190614ec7565b60048101546001600160a01b0316600081815260106020526040902061133790846132bd565b50600482018054336001600160a01b03199182168117909255600584018054909116905560009081526010602052604090206113739084613637565b50604080518481526001600160a01b0383166020820152338183015290517ff91adf142bcf2de4e78197d8153f97cc3bf959173f88d7e5091f50d40e1085fe9181900360600190a150506112cc6001600255565b6113cf612dd3565b6113d882612e2a565b6001600160a01b038116330361141d5760405162461bcd60e51b815260206004820152600a60248201526929a0a6a29027aba722a960b11b6044820152606401610a71565b6000828152600f60209081526040918290206005810180546001600160a01b0319166001600160a01b03861690811790915583518681523393810193909352928201929092527f7336363d3c1722824dac3c93d1256b57d394f59da51548af7e779e47c13fff10906060015b60405180910390a150610c466001600255565b6001600160a01b03811660009081526010602052604081206114bd906132d0565b92915050565b6114cb6132da565b6114d56000613643565b565b60015433906001600160a01b031681146115455760405162461bcd60e51b815260206004820152602960248201527f4f776e61626c6532537465703a2063616c6c6572206973206e6f7420746865206044820152683732bb9037bbb732b960b91b6064820152608401610a71565b6112cc81613643565b6115566145dd565b6003600061156560048561365c565b81526020019081526020016000206040518060a001604052908160008201805461158e90614ee6565b80601f01602080910402602001604051908101604052809291908181526020018280546115ba90614ee6565b80156116075780601f106115dc57610100808354040283529160200191611607565b820191906000526020600020905b8154815290600101906020018083116115ea57829003601f168201915b50505091835250506001820154602082015260028201546040820152600382015460608201526004909101546001600160a01b031660809091015292915050565b6116506132da565b600c80546001600160a01b0319166001600160a01b0392909216919091179055565b61167a614615565b6001600160a01b0383166000908152601060205260408120600f91906116a0908561365c565b815260208082019290925260409081016000208151610160810183528154815260018201546001600160a01b03908116948201949094526002820154841692810192909252600381015460608301526004810154831660808301526005810154831660a08301526006810154831660c0830152600781015490921660e08201526008820154610100820152600982015461ffff16610120820152600a909101546101408201529392505050565b60008061177461175c87613668565b61176587613668565b61176e87613668565b86613a88565b915091505b94509492505050565b600061178c612dd3565b600061179e608084016060850161483c565b6001600160a01b0316036117b157600080fd5b60006117c360c0840160a0850161483c565b6001600160a01b0316036118085760405162461bcd60e51b815260206004820152600c60248201526b21a7a62622a1aa2fa0a2222960a11b6044820152606401610a71565b6402540be4008260c0013510806118245750600e548260c00135145b61185f5760405162461bcd60e51b815260206004820152600c60248201526b4d494c4c495345434f4e445360a01b6044820152606401610a71565b428260c00135116118a05760405162461bcd60e51b815260206004820152600b60248201526a1110551148141054d4d15160aa1b6044820152606401610a71565b600a546001600160a01b0316635cb49b556118c2610100850160e08601614f20565b6040516001600160e01b031960e084901b16815261ffff9091166004820152602401602060405180830381865afa158015611901573d6000803e3d6000fd5b505050506040513d601f19601f820116820180604052508101906119259190614ea5565b61195b5760405162461bcd60e51b8152602060048201526007602482015266434f554e54525960c81b6044820152606401610a71565b6119636145dd565b600c546001600160a01b031633036119bd57611983610120840184614f44565b600081811061199457611994614f8e565b90506020028101906119a69190614fa4565b8101906119b39190614902565b6040820152611ac2565b60006119cd610120850185614f44565b90501115611a61576006546001600160a01b03166332c07c9e6119f4610120860186614f44565b336040518463ffffffff1660e01b8152600401611a1393929190615014565b6000604051808303816000875af1158015611a32573d6000803e3d6000fd5b505050506040513d6000823e601f3d908101601f19168201604052611a5a91908101906150be565b9050611aaf565b611aac611a72610100850185614fa4565b8080601f01602080910402602001604051908101604052809392919081815260200183838082843760009201919091525061287792505050565b90505b606081015115611ac257611ac281613b23565b611acf602084018461483c565b604051632142170760e11b8152336004820152306024820152602085013560448201526001600160a01b0391909116906342842e0e90606401600060405180830381600087803b158015611b2257600080fd5b505af1158015611b36573d6000803e3d6000fd5b50505050611b42614671565b611b4f602085018561483c565b60405163133f757160e31b8152602086013560048201526001600160a01b0391909116906399fbab889060240161018060405180830381865afa158015611b9a573d6000803e3d6000fd5b505050506040513d601f19601f82011682018060405250810190611bbe9190614d8d565b505050506001600160801b031660e0890152600290810b60c08901520b60a087015262ffffff1660808601526001600160a01b0390811660608601521660408401525060009050611c12602086018661483c565b6001600160a01b031663c45a01556040518163ffffffff1660e01b8152600401602060405180830381865afa158015611c4f573d6000803e3d6000fd5b505050506040513d601f19601f82011682018060405250810190611c739190615194565b604080840151606085015160808601519251630b4c774160e11b81526001600160a01b039283166004820152908216602482015262ffffff9092166044830152919250600091831690631698ee8290606401602060405180830381865afa158015611ce2573d6000803e3d6000fd5b505050506040513d601f19601f82011682018060405250810190611d069190615194565b60808401516040516322afcccb60e01b815262ffffff9091166004820152909150600090611d83906001600160a01b038516906322afcccb90602401602060405180830381865afa158015611d5f573d6000803e3d6000fd5b505050506040513d601f19601f8201168201806040525081019061089291906151b1565b90506000611d90826151e4565b60020b8560a0015160020b14158015611db357508160020b8560c0015160020b14155b15611deb57611de4611dc860208a018a61483c565b60208a01358785611ddf60608e0160408f0161483c565b613bd6565b9050611eb3565b5060208701803590611dfd908961483c565b6001600160a01b031663fc6f786560405180608001604052808481526020018b6040016020810190611e2f919061483c565b6001600160a01b031681526001600160801b0360208201819052604091820152516001600160e01b031960e084901b168152611e6e9190600401615206565b60408051808303816000875af1158015611e8c573d6000803e3d6000fd5b505050506040513d601f19601f82011682018060405250810190611eb09190615249565b50505b602086015115612053576000611ed5611ecf60208b018b61483c565b83613ead565b9050611ee460208a018a61483c565b6001600160a01b0316630c49ccbe6040518060a001604052808581526020016127108b60200151866001600160801b0316611f1f919061526d565b611f29919061529a565b6001600160801b031681526020016000815260200160008152602001428152506040518263ffffffff1660e01b8152600401611f6591906152ae565b60408051808303816000875af1158015611f83573d6000803e3d6000fd5b505050506040513d601f19601f82011682018060405250810190611fa79190615249565b50611fb7905060208a018a61483c565b604080516080810182528481526008546001600160a01b0390811660208301526001600160801b038284018190526060830152915163fc6f786560e01b8152929091169163fc6f78659161200d91600401615206565b60408051808303816000875af115801561202b573d6000803e3d6000fd5b505050506040513d601f19601f8201168201806040525081019061204f9190615249565b5050505b61205b614615565b600d54815261206d60208a018a61483c565b6001600160a01b03908116602083015284166040820152606080820183905261209c9060808b01908b0161483c565b6001600160a01b03166080808301919091526120be9060a08b01908b0161483c565b6001600160a01b031660c0808301919091526120df908a0160a08b0161483c565b6001600160a01b031660e08083019190915260c08a01356101008084019190915261210f91908b01908b01614f20565b61ffff90811661012083019081526040898101516101408501908152600d80546000908152600f602090815284822088518155908801516001820180546001600160a01b03199081166001600160a01b03938416179091559589015160028301805488169183169190911790556060808a015160038401556080808b01516004850180548a1691851691909117905560a08b01516005850180548a1691851691909117905560c08b01516006850180548a1691851691909117905560e08b01516007850180549099169316929092179096556101008901516008830155955160098201805461ffff191691909816179096559151600a909501949094559254612244939092601092612225918f01908f0161483c565b6001600160a01b03168152602081019190915260400160002090613637565b50600d8054906000612255836152f1565b9091555050805161226590613f30565b5196505050505050506122786001600255565b919050565b6122856132da565b61228d612dd3565b6040516001600160a01b0382169083156108fc029084906000818181858888f193505050501580156122c3573d6000803e3d6000fd5b50610c466001600255565b6122d6612dd3565b6122df82612e2a565b6000828152600f60209081526040918290206006810180546001600160a01b0319166001600160a01b038616908117909155835186815292830152917fda22afd9d1e0640f160cada74dec56452db8535daf46772df2c5f7a3af46485f9101611489565b61234b612dd3565b61235482612e2a565b6000828152600f602052604090206008810154821161239e5760405162461bcd60e51b8152600401610a71906020808252600490820152634441544560e01b604082015260600190565b4282116123db5760405162461bcd60e51b815260206004820152600b60248201526a1110551148141054d4d15160aa1b6044820152606401610a71565b6402540be4008210806123ef5750600e5482145b61242a5760405162461bcd60e51b815260206004820152600c60248201526b4d494c4c495345434f4e445360a01b6044820152606401610a71565b6008810182905560408051848152602081018490527fefaff1b90138281d215452c67f793017f52e456f65c28ac63f5309a89a059b479101611489565b61246f612dd3565b61247882612e2a565b6001600160a01b0381166124bd5760405162461bcd60e51b815260206004820152600c60248201526b21a7a62622a1aa2fa0a2222960a11b6044820152606401610a71565b6000828152600f60209081526040918290206007810180546001600160a01b0319166001600160a01b038616908117909155835186815292830152917ff47f77d5d198f5b58faaca8c7dc86ebe53925091c07487a01ec62159ff16664e9101611489565b6125296132da565b60008160405160200161253c919061530a565b60405160208183030381529060405280519060200120905060405160200161257190661111519055531560ca1b815260070190565b6040516020818303038152906040528051906020012081036125bf5760405162461bcd60e51b81526020600482015260076024820152661111519055531560ca1b6044820152606401610a71565b6125ca600482614121565b6125d357600080fd5b6125de6004826132bd565b506040518181527faea1931d5fe74928dff1db9836d2d9de778b60cb4afc9ec70c9a1f16b58598a59060200160405180910390a15050565b61261e614615565b506000908152600f60209081526040918290208251610160810184528154815260018201546001600160a01b03908116938201939093526002820154831693810193909352600381015460608401526004810154821660808401526005810154821660a08401526006810154821660c0840152600781015490911660e08301526008810154610100830152600981015461ffff16610120830152600a015461014082015290565b6000816126d581620d89e8615326565b6114bd9190615360565b6126e76132da565b6000856040516020016126fa919061530a565b60408051601f19818403018152828252805160209182012060a084018352898452838201899052838301889052606084018790526001600160a01b03861660808501526000818152600390925291902082519193508291819061275d90826153c6565b50602082015160018201556040820151600282015560608201516003820155608090910151600491820180546001600160a01b0319166001600160a01b039092169190911790556127ae9083614121565b612818576127bd600483613637565b507f335d96fad821252e8298f51336937e44332b3731a3c3f249b2cdb77652b33e4f828260000151836020015184604001518560600151866080015160405161280b96959493929190615486565b60405180910390a161286e565b7fdd151e7029525c623e7c09af0f71271bd7642edd1bf2f64d97bc552faba7c86d828260000151836020015184604001518560600151866080015160405161286596959493929190615486565b60405180910390a15b50505050505050565b61287f6145dd565b600082604051602001612892919061530a565b60408051601f19818403018152919052805160209091012090506128b7600482614121565b6128ef5760405162461bcd60e51b81526020600482015260096024820152681393d5081193d5539160ba1b6044820152606401610a71565b60008181526003602052604090819020815160a0810190925280548290829061291790614ee6565b80601f016020809104026020016040519081016040528092919081815260200182805461294390614ee6565b80156129905780601f1061296557610100808354040283529160200191612990565b820191906000526020600020905b81548152906001019060200180831161297357829003601f168201915b50505091835250506001820154602082015260028201546040820152600382015460608201526004909101546001600160a01b03166080909101529392505050565b6129da6132da565b6000828152600f60205260409020600a8101548210612a1f5760405162461bcd60e51b81526020600482015260016024820152601360fa1b6044820152606401610a71565b600a810182905560408051848152602081018490527fa4b63b21571e7c2b944a681b0a39cda220f85f67aaa7aa4d23fcf7d31e2379a391015b60405180910390a1505050565b600080612a70612dd3565b612a7984612e2a565b6000848152600f60209081526040918290208251610160810184528154815260018201546001600160a01b039081169382019390935260028201548316938101939093526003810154606084018190526004820154831660808501526005820154831660a08501526006820154831660c0850152600782015490921660e08401526008810154610100840152600981015461ffff16610120840152600a0154610140830152843514612b565760405162461bcd60e51b815260206004820152600660248201526513919508125160d21b6044820152606401610a71565b600e5481610100015103612b9b5760405162461bcd60e51b815260206004820152600c60248201526b455445524e414c5f4c4f434b60a01b6044820152606401610a71565b4281610100015110612bd95760405162461bcd60e51b81526020600482015260076024820152661393d50816515560ca1b6044820152606401610a71565b80602001516001600160a01b0316630c49ccbe856040518263ffffffff1660e01b8152600401612c0991906154cd565b60408051808303816000875af1158015612c27573d6000803e3d6000fd5b505050506040513d601f19601f82011682018060405250810190612c4b9190615249565b60208084015160408051608081018252606080880151825233948201949094526001600160801b03818301819052938101939093525163fc6f786560e01b81529396509194506001600160a01b039091169163fc6f786591612caf91600401615206565b60408051808303816000875af1158015612ccd573d6000803e3d6000fd5b505050506040513d601f19601f82011682018060405250810190612cf19190615249565b50506040518581527fffeb250f5933abd95c7c8e2c0317b8041dc9c5a309b73fa772f533ddd085dd3a9060200160405180910390a150612d316001600255565b9250929050565b612d406132da565b600180546001600160a01b0383166001600160a01b03199091168117909155612d716000546001600160a01b031690565b6001600160a01b03167f38d16b8cac22d99fc7c124b9cd0de2d3fa1faef420bfe791d8c362d765e2270060405160405180910390a350565b612db16132da565b600680546001600160a01b0319166001600160a01b0392909216919091179055565b6002805403612e245760405162461bcd60e51b815260206004820152601f60248201527f5265656e7472616e637947756172643a207265656e7472616e742063616c6c006044820152606401610a71565b60028055565b6000818152600f60209081526040918290208251610160810184528154815260018201546001600160a01b039081169382019390935260028201548316938101939093526003810154606084015260048101548216608084018190526005820154831660a08501526006820154831660c0850152600782015490921660e08401526008810154610100840152600981015461ffff16610120840152600a01546101408301523314610c465760405162461bcd60e51b8152600401610a7190614ec7565b6000848152600f602090815260408083208151610160810183528154815260018201546001600160a01b039081169482019490945260028201548416928101929092526003810154606083015260048101548316608083018190526005820154841660a08401526006820154841660c0840152600780830154851660e08501526008830154610100850152600983015461ffff16610120850152600a90920154610140840152905484938493849390923392168214911480612fbb575060c08201516001600160a01b031633145b80612fc35750805b612fdf5760405162461bcd60e51b8152600401610a7190614ec7565b8161014001516000036130a75781602001516001600160a01b031663fc6f78656040518060800160405280856060015181526020018c6001600160a01b031681526020018b6001600160801b031681526020018a6001600160801b03168152506040518263ffffffff1660e01b815260040161305b9190615206565b60408051808303816000875af1158015613079573d6000803e3d6000fd5b505050506040513d601f19601f8201168201806040525081019061309d9190615249565b90965094506132b0565b60008083602001516001600160a01b03166399fbab8885606001516040518263ffffffff1660e01b81526004016130e091815260200190565b61018060405180830381865afa1580156130fe573d6000803e3d6000fd5b505050506040513d601f19601f820116820180604052508101906131229190614d8d565b505050505050505093509350505060008085602001516001600160a01b031663fc6f7865604051806080016040528089606001518152602001306001600160a01b031681526020018f6001600160801b031681526020018e6001600160801b03168152506040518263ffffffff1660e01b81526004016131a29190615206565b60408051808303816000875af11580156131c0573d6000803e3d6000fd5b505050506040513d601f19601f820116820180604052508101906131e49190615249565b91509150600085613200576009546001600160a01b0316613202565b8d5b9050600086613211578e613217565b8760e001515b905083156132615761271088610140015185613233919061526d565b61323d919061529a565b995061324a86838c61353e565b6132548a85615517565b9b5061326186828e61353e565b82156132a9576127108861014001518461327b919061526d565b613285919061529a565b985061329285838b61353e565b61329c8984615517565b9a506132a985828d61353e565b5050505050505b5050945094509450949050565b60006132c98383614139565b9392505050565b60006114bd825490565b6000546001600160a01b031633146114d55760405162461bcd60e51b815260206004820181905260248201527f4f776e61626c653a2063616c6c6572206973206e6f7420746865206f776e65726044820152606401610a71565b604080516001600160a01b0385811660248301528481166044830152606480830185905283518084039091018152608490920183526020820180516001600160e01b03166323b872dd60e01b1790529151600092839290881691613398919061530a565b6000604051808303816000865af19150503d80600081146133d5576040519150601f19603f3d011682016040523d82523d6000602084013e6133da565b606091505b50915091508180156134045750805115806134045750808060200190518101906134049190614ea5565b6134365760405162461bcd60e51b815260206004820152600360248201526229aa2360e91b6044820152606401610a71565b505050505050565b604080516001600160a01b038481166024830152604480830185905283518084039091018152606490920183526020820180516001600160e01b031663095ea7b360e01b179052915160009283929087169161349a919061530a565b6000604051808303816000865af19150503d80600081146134d7576040519150601f19603f3d011682016040523d82523d6000602084013e6134dc565b606091505b50915091508180156135065750805115806135065750808060200190518101906135069190614ea5565b6135375760405162461bcd60e51b8152602060048201526002602482015261534160f01b6044820152606401610a71565b5050505050565b604080516001600160a01b038481166024830152604480830185905283518084039091018152606490920183526020820180516001600160e01b031663a9059cbb60e01b179052915160009283929087169161359a919061530a565b6000604051808303816000865af19150503d80600081146135d7576040519150601f19603f3d011682016040523d82523d6000602084013e6135dc565b606091505b50915091508180156136065750805115806136065750808060200190518101906136069190614ea5565b6135375760405162461bcd60e51b815260206004820152600260248201526114d560f21b6044820152606401610a71565b60006132c98383614233565b600180546001600160a01b03191690556112cc81614282565b60006132c983836142d2565b60008060008360020b1261367f578260020b61368c565b8260020b61368c9061552a565b905061369b620d89e7196151e4565b60020b8111156136d15760405162461bcd60e51b81526020600482015260016024820152601560fa1b6044820152606401610a71565b6000816001166000036136e857600160801b6136fa565b6ffffcb933bd6fad37aa2d162d1a5940015b70ffffffffffffffffffffffffffffffffff1690506002821615613739576080613734826ffff97272373d413259a46990580e213a61526d565b901c90505b600482161561376357608061375e826ffff2e50f5f656932ef12357cf3c7fdcc61526d565b901c90505b600882161561378d576080613788826fffe5caca7e10e4e61c3624eaa0941cd061526d565b901c90505b60108216156137b75760806137b2826fffcb9843d60f6159c9db58835c92664461526d565b901c90505b60208216156137e15760806137dc826fff973b41fa98c081472e6896dfb254c061526d565b901c90505b604082161561380b576080613806826fff2ea16466c96a3843ec78b326b5286161526d565b901c90505b6080821615613835576080613830826ffe5dee046a99a2a811c461f1969c305361526d565b901c90505b61010082161561386057608061385b826ffcbe86c7900a88aedcffc83b479aa3a461526d565b901c90505b61020082161561388b576080613886826ff987a7253ac413176f2b074cf7815e5461526d565b901c90505b6104008216156138b65760806138b1826ff3392b0822b70005940c7a398e4b70f361526d565b901c90505b6108008216156138e15760806138dc826fe7159475a2c29b7443b29c7fa6e889d961526d565b901c90505b61100082161561390c576080613907826fd097f3bdfd2022b8845ad8f792aa582561526d565b901c90505b612000821615613937576080613932826fa9f746462d870fdf8a65dc1f90e061e561526d565b901c90505b61400082161561396257608061395d826f70d869a156d2a1b890bb3df62baf32f761526d565b901c90505b61800082161561398d576080613988826f31be135f97d08fd981231505542fcfa661526d565b901c90505b620100008216156139b95760806139b4826f09aa508b5b7a84e1c677de54f3e99bc961526d565b901c90505b620200008216156139e45760806139df826e5d6af8dedb81196699c329225ee60461526d565b901c90505b62040000821615613a0e576080613a09826d2216e584f5fa1ea926041bedfe9861526d565b901c90505b62080000821615613a36576080613a31826b048a170391f7dc42444e8fa261526d565b901c90505b60008460020b1315613a5157613a4e8160001961529a565b90505b613a6064010000000082615546565b15613a6c576001613a6f565b60005b613a809060ff16602083901c61555a565b949350505050565b600080836001600160a01b0316856001600160a01b03161115613aa9579293925b846001600160a01b0316866001600160a01b031611613ad457613acd8585856142fc565b9150611779565b836001600160a01b0316866001600160a01b03161015613b0d57613af98685856142fc565b9150613b0685878561436f565b9050611779565b613b1885858561436f565b905094509492505050565b60808101516001600160a01b0316613bb15780606001513414613b735760405162461bcd60e51b8152602060048201526008602482015267464c41542046454560c01b6044820152606401610a71565b60085460608201516040516001600160a01b039092169181156108fc0291906000818181858888f19350505050158015610c46573d6000803e3d6000fd5b608081015160085460608301516112cc929133916001600160a01b0390911690613334565b6040805160a08101825285815260e08501516001600160801b031660208201526000818301819052606082018190524260808301529151630624e65f60e11b81526001600160a01b03881691630c49ccbe91613c3591906004016152ae565b60408051808303816000875af1158015613c53573d6000803e3d6000fd5b505050506040513d601f19601f82011682018060405250810190613c779190615249565b5050604080516080810182528681523060208201526001600160801b038183018190526060820152905163fc6f786560e01b815260009182916001600160a01b038a169163fc6f786591613cce9190600401615206565b60408051808303816000875af1158015613cec573d6000803e3d6000fd5b505050506040513d601f19601f82011682018060405250810190613d109190615249565b915091506000613d2089896143b9565b42610140820152306101208201529050613d39866151e4565b600290810b606083015286900b608082015260a0810183905260c08101829052600060e082018190526101008201528051613d75908a8561343e565b613d8881602001518a8360c0015161343e565b60008060008b6001600160a01b03166388316456856040518263ffffffff1660e01b8152600401613db9919061556d565b6080604051808303816000875af1158015613dd8573d6000803e3d6000fd5b505050506040513d601f19601f82011682018060405250810190613dfc9190615620565b935093505092508b6001600160a01b03166342966c688c6040518263ffffffff1660e01b8152600401613e3191815260200190565b600060405180830381600087803b158015613e4b57600080fd5b505af1158015613e5f573d6000803e3d6000fd5b5050505081861115613e81578351613e819089613e7c858a615517565b61353e565b80851115613e9d576020840151613e9d9089613e7c8489615517565b50909a9950505050505050505050565b60405163133f757160e31b81526004810182905260009081906001600160a01b038516906399fbab889060240161018060405180830381865afa158015613ef8573d6000803e3d6000fd5b505050506040513d601f19601f82011682018060405250810190613f1c9190614d8d565b50929e9d5050505050505050505050505050565b6000818152600f60209081526040918290208251610160810184528154815260018201546001600160a01b03908116938201939093526002820154831693810193909352600381015460608401526004810154821660808401526005810154821660a08401526006810154821660c0840152600781015490911660e08301526008810154610100830152600981015461ffff16610120830152600a0154610140820152613fdb614671565b6020820151606083015160405163133f757160e31b81526001600160a01b03909216916399fbab88916140149160040190815260200190565b61018060405180830381865afa158015614032573d6000803e3d6000fd5b505050506040513d601f19601f820116820180604052508101906140569190614d8d565b5050506001600160801b0390911660e0808b0191909152600292830b60c0808c01919091529390920b60a08a01525062ffffff9092166080808901919091526001600160a01b039384166060808a019190915293909416604080890191909152885160208a0151948a0151958a0151928a0151938a01516101008b01516101208c01516101408d01518d86015195517f3bf9c85fbe37d401523942f10940796acef64062e1a1c45647978e32f4969f5c9c50612a589b50949997959394929391929091908d9061565e565b600081815260018301602052604081205415156132c9565b6000818152600183016020526040812054801561422257600061415d600183615517565b855490915060009061417190600190615517565b90508181146141d657600086600001828154811061419157614191614f8e565b90600052602060002001549050808760000184815481106141b4576141b4614f8e565b6000918252602080832090910192909255918252600188019052604090208390555b85548690806141e7576141e7615795565b6001900381819060005260206000200160009055905585600101600086815260200190815260200160002060009055600193505050506114bd565b60009150506114bd565b5092915050565b600081815260018301602052604081205461427a575081546001818101845560008481526020808220909301849055845484825282860190935260409020919091556114bd565b5060006114bd565b600080546001600160a01b038381166001600160a01b0319831681178455604051919092169283917f8be0079c531659141344cd1fd0a4f28419497f9722a3daafe3b4186f6b6457e09190a35050565b60008260000182815481106142e9576142e9614f8e565b9060005260206000200154905092915050565b6000826001600160a01b0316846001600160a01b0316111561431c579192915b6001600160a01b0384166143656fffffffffffffffffffffffffffffffff60601b606085901b1661434d87876157ab565b6001600160a01b0316866001600160a01b0316614464565b613a80919061529a565b6000826001600160a01b0316846001600160a01b0316111561438f579192915b613a806001600160801b0383166143a686866157ab565b6001600160a01b0316600160601b614464565b6143c1614615565b6143c9614615565b60405163133f757160e31b8152600481018490526001600160a01b038516906399fbab889060240161018060405180830381865afa15801561440f573d6000803e3d6000fd5b505050506040513d601f19601f820116820180604052508101906144339190614d8d565b50505062ffffff90941660408a01525050506001600160a01b03918216602087015250168352509091505092915050565b600080806000198587098587029250828110838203039150508060000361449d576000841161449257600080fd5b5082900490506132c9565b8084116144a957600080fd5b60008486880980840393811190920391905060006144c98619600161555a565b86169586900495938490049360008190030460010190506144ea818461526d565b9093179260006144fb87600361526d565b600218905061450a818861526d565b614515906002615517565b61451f908261526d565b905061452b818861526d565b614536906002615517565b614540908261526d565b905061454c818861526d565b614557906002615517565b614561908261526d565b905061456d818861526d565b614578906002615517565b614582908261526d565b905061458e818861526d565b614599906002615517565b6145a3908261526d565b90506145af818861526d565b6145ba906002615517565b6145c4908261526d565b90506145d0818661526d565b9998505050505050505050565b6040518060a001604052806060815260200160008152602001600081526020016000815260200160006001600160a01b031681525090565b6040805161016081018252600080825260208201819052918101829052606081018290526080810182905260a0810182905260c0810182905260e081018290526101008101829052610120810182905261014081019190915290565b6040805161018081018252600080825260208201819052918101829052606081018290526080810182905260a0810182905260c0810182905260e0810182905261010081018290526101208101829052610140810182905261016081019190915290565b6001600160a01b03811681146112cc57600080fd5b600080604083850312156146fd57600080fd5b82359150602083013561470f816146d5565b809150509250929050565b60008060006060848603121561472f57600080fd5b833561473a816146d5565b9250602084013561474a816146d5565b9150604084013561475a816146d5565b809150509250925092565b60008060008060006080868803121561477d57600080fd5b8535614788816146d5565b94506020860135614798816146d5565b935060408601359250606086013567ffffffffffffffff808211156147bc57600080fd5b818801915088601f8301126147d057600080fd5b8135818111156147df57600080fd5b8960208285010111156147f157600080fd5b9699959850939650602001949392505050565b60008082840360e081121561481857600080fd5b8335925060c0601f198201121561482e57600080fd5b506020830190509250929050565b60006020828403121561484e57600080fd5b81356132c9816146d5565b6001600160801b03811681146112cc57600080fd5b6000806000806080858703121561488457600080fd5b843593506020850135614896816146d5565b925060408501356148a681614859565b915060608501356148b681614859565b939692955090935050565b6000806000606084860312156148d657600080fd5b83356148e1816146d5565b925060208401356148f1816146d5565b929592945050506040919091013590565b60006020828403121561491457600080fd5b5035919050565b60005b8381101561493657818101518382015260200161491e565b50506000910152565b6000815180845261495781602086016020860161491b565b601f01601f19169290920160200192915050565b602081526000825160a0602084015261498760c084018261493f565b905060208401516040840152604084015160608401526060840151608084015260018060a01b0360808501511660a08401528091505092915050565b600080604083850312156149d657600080fd5b82356149e1816146d5565b946020939093013593505050565b81518152602080830151610160830191614a13908401826001600160a01b03169052565b506040830151614a2e60408401826001600160a01b03169052565b50606083015160608301526080830151614a5360808401826001600160a01b03169052565b5060a0830151614a6e60a08401826001600160a01b03169052565b5060c0830151614a8960c08401826001600160a01b03169052565b5060e0830151614aa460e08401826001600160a01b03169052565b5061010083810151908301526101208084015161ffff8116828501525b505061014092830151919092015290565b8060020b81146112cc57600080fd5b60008060008060808587031215614af757600080fd5b8435614b0281614ad2565b93506020850135614b1281614ad2565b925060408501356148a681614ad2565b600060208284031215614b3457600080fd5b813567ffffffffffffffff811115614b4b57600080fd5b820161014081850312156132c957600080fd5b60008060408385031215614b7157600080fd5b50508035926020909101359150565b634e487b7160e01b600052604160045260246000fd5b60405160a0810167ffffffffffffffff81118282101715614bb957614bb9614b80565b60405290565b604051601f8201601f1916810167ffffffffffffffff81118282101715614be857614be8614b80565b604052919050565b600067ffffffffffffffff821115614c0a57614c0a614b80565b50601f01601f191660200190565b600082601f830112614c2957600080fd5b8135614c3c614c3782614bf0565b614bbf565b818152846020838601011115614c5157600080fd5b816020850160208301376000918101602001919091529392505050565b600060208284031215614c8057600080fd5b813567ffffffffffffffff811115614c9757600080fd5b613a8084828501614c18565b600060208284031215614cb557600080fd5b81356132c981614ad2565b600080600080600060a08688031215614cd857600080fd5b853567ffffffffffffffff811115614cef57600080fd5b614cfb88828901614c18565b9550506020860135935060408601359250606086013591506080860135614d21816146d5565b809150509295509295909350565b60008082840360c0811215614d4357600080fd5b8335925060a0601f198201121561482e57600080fd5b8051612278816146d5565b805162ffffff8116811461227857600080fd5b805161227881614ad2565b805161227881614859565b6000806000806000806000806000806000806101808d8f031215614db057600080fd5b8c516bffffffffffffffffffffffff81168114614dcc57600080fd5b9b50614dda60208e01614d59565b9a50614de860408e01614d59565b9950614df660608e01614d59565b9850614e0460808e01614d64565b9750614e1260a08e01614d77565b9650614e2060c08e01614d77565b9550614e2e60e08e01614d82565b94506101008d015193506101208d01519250614e4d6101408e01614d82565b9150614e5c6101608e01614d82565b90509295989b509295989b509295989b565b600080600060608486031215614e8357600080fd5b8351614e8e81614859565b602085015160409095015190969495509392505050565b600060208284031215614eb757600080fd5b815180151581146132c957600080fd5b60208082526005908201526427aba722a960d91b604082015260600190565b600181811c90821680614efa57607f821691505b602082108103614f1a57634e487b7160e01b600052602260045260246000fd5b50919050565b600060208284031215614f3257600080fd5b813561ffff811681146132c957600080fd5b6000808335601e19843603018112614f5b57600080fd5b83018035915067ffffffffffffffff821115614f7657600080fd5b6020019150600581901b3603821315612d3157600080fd5b634e487b7160e01b600052603260045260246000fd5b6000808335601e19843603018112614fbb57600080fd5b83018035915067ffffffffffffffff821115614fd657600080fd5b602001915036819003821315612d3157600080fd5b81835281816020850137506000828201602090810191909152601f909101601f19169091010190565b6040808252810183905260006060600585901b8301810190830186835b878110156150a557858403605f190183528135368a9003601e1901811261505757600080fd5b8901602081810191359067ffffffffffffffff82111561507657600080fd5b81360383131561508557600080fd5b615090878385614feb565b96509485019493909301925050600101615031565b5050506001600160a01b03841660208401529050613a80565b600060208083850312156150d157600080fd5b825167ffffffffffffffff808211156150e957600080fd5b9084019060a082870312156150fd57600080fd5b615105614b96565b82518281111561511457600080fd5b83019150601f8201871361512757600080fd5b8151615135614c3782614bf0565b818152888683860101111561514957600080fd5b6151588287830188870161491b565b80835250508383015184820152604083015160408201526060830151606082015261518560808401614d59565b60808201529695505050505050565b6000602082840312156151a657600080fd5b81516132c9816146d5565b6000602082840312156151c357600080fd5b81516132c981614ad2565b634e487b7160e01b600052601160045260246000fd5b60008160020b627fffff1981036151fd576151fd6151ce565b60000392915050565b815181526020808301516001600160a01b0316908201526040808301516001600160801b0390811691830191909152606092830151169181019190915260800190565b6000806040838503121561525c57600080fd5b505080516020909101519092909150565b80820281158282048414176114bd576114bd6151ce565b634e487b7160e01b600052601260045260246000fd5b6000826152a9576152a9615284565b500490565b600060a082019050825182526001600160801b03602084015116602083015260408301516040830152606083015160608301526080830151608083015292915050565b600060018201615303576153036151ce565b5060010190565b6000825161531c81846020870161491b565b9190910192915050565b60008160020b8360020b8061533d5761533d615284565b627fffff19821460001982141615615357576153576151ce565b90059392505050565b60008260020b8260020b028060020b915080821461422c5761422c6151ce565b601f82111561100457600081815260208120601f850160051c810160208610156153a75750805b601f850160051c820191505b81811015613436578281556001016153b3565b815167ffffffffffffffff8111156153e0576153e0614b80565b6153f4816153ee8454614ee6565b84615380565b602080601f83116001811461542957600084156154115750858301515b600019600386901b1c1916600185901b178555613436565b600085815260208120601f198616915b8281101561545857888601518255948401946001909101908401615439565b50858210156154765787850151600019600388901b60f8161c191681555b5050505050600190811b01905550565b86815260c06020820152600061549f60c083018861493f565b604083019690965250606081019390935260808301919091526001600160a01b031660a09091015292915050565b8135815260a0810160208301356154e381614859565b6001600160801b03811660208401525060408301356040830152606083013560608301526080830135608083015292915050565b818103818111156114bd576114bd6151ce565b6000600160ff1b820161553f5761553f6151ce565b5060000390565b60008261555557615555615284565b500690565b808201808211156114bd576114bd6151ce565b81516001600160a01b031681526101608101602083015161559960208401826001600160a01b03169052565b5060408301516155b0604084018262ffffff169052565b5060608301516155c5606084018260020b9052565b5060808301516155da608084018260020b9052565b5060a083015160a083015260c083015160c083015260e083015160e083015261010080840151818401525061012080840151614ac1828501826001600160a01b03169052565b6000806000806080858703121561563657600080fd5b84519350602085015161564881614859565b6040860151606090960151949790965092505050565b60006102c0820190508c825260018060a01b03808d1660208401528b6040840152808b166060840152808a16608084015280891660a08401528760c084015261ffff871660e084015261010086818501526101208287168186015261014092506156d883860187516bffffffffffffffffffffffff169052565b60208601516101606156f4818801836001600160a01b03169052565b60408801516001600160a01b039081166101808901526060890151166101a0880152608088015162ffffff166101c088015260a0880151600290810b6101e089015260c0890151900b61020088015260e08801516001600160801b039081166102208901529388015161024088015291870151610260870152509185015181166102808501529301519092166102a0909101529a9950505050505050505050565b634e487b7160e01b600052603160045260246000fd5b6001600160a01b0382811682821603908082111561422c5761422c6151ce56fea2646970667358221220c0f3d273b26e479270305005358b7c4d0e9d4748c15a7606abdd797dfeb251ac64736f6c63430008130033","linkReferences":{}},"methodIdentifiers":{"AUTO_COLLECT_ACCOUNT()":"066b58c7","COUNTRY_LIST()":"fe0ab561","ETERNAL_LOCK()":"75eb8e69","FEE_ADDR_COLLECT()":"1f113fc3","FEE_ADDR_LP()":"0ae300bf","FEE_DENOMINATOR()":"d73792a9","FEE_RESOLVER()":"d1f55d45","LOCKS(uint256)":"cf0d5af3","MIGRATE_IN()":"c7a85b40","MIGRATOR()":"9ecd7472","NONCE()":"e091dd1a","acceptLockOwnership(uint256)":"45908a47","acceptOwnership()":"79ba5097","addOrEditFee(string,uint256,uint256,uint256,address)":"e7a7bdfe","adminRefundERC20(address,address,uint256)":"280f3867","adminRefundEth(uint256,address)":"ab9ae180","collect(uint256,address,uint128,uint128)":"260e12b0","decreaseLiquidity(uint256,(uint256,uint128,uint256,uint256,uint256))":"f11478f8","getAmountsForLiquidity(int24,int24,int24,uint128)":"a339df12","getFee(string)":"ed1eee68","getFeeOptionAtIndex(uint256)":"83fb69ad","getFeeOptionLength()":"038975a1","getLock(uint256)":"d68f4dd1","getLocksLength()":"489c18b0","getNumUserLocks(address)":"611f6fe6","getUserLockAtIndex(address,uint256)":"9f185a0b","increaseLiquidity(uint256,(uint256,uint256,uint256,uint256,uint256,uint256))":"18694155","lock((address,uint256,address,address,address,address,uint256,uint16,string,bytes[]))":"a35a96b8","migrate(uint256)":"454b0608","onERC721Received(address,address,uint256,bytes)":"150b7a02","owner()":"8da5cb5b","pendingOwner()":"e30c3978","relock(uint256,uint256)":"b2fb30cb","removeFee(string)":"d5fdb732","renounceOwnership()":"715018a6","setAdditionalCollector(uint256,address)":"ac4521c6","setCollectAddress(uint256,address)":"b707a288","setFeeParams(address,address,address)":"09564ab0","setFeeResolver(address)":"fae2e648","setMigrateInContract(address)":"8b52a6ee","setMigrator(address)":"23cf3118","setUCF(uint256,uint256)":"ef248944","tickSpacingToMaxTick(int24)":"e526dd48","transferLockOwnership(uint256,address)":"5a04fb69","transferOwnership(address)":"f2fde38b","withdraw(uint256,address)":"00f714ce"},"id":58}