{"abi":[{"type":"constructor","inputs":[{"name":"_factory","type":"address","internalType":"address"}],"stateMutability":"nonpayable"},{"type":"function","name":"burn","inputs":[{"name":"lockTokenId","type":"uint256","internalType":"uint256"}],"outputs":[],"stateMutability":"payable"},{"type":"function","name":"collect","inputs":[{"name":"params","type":"tuple","internalType":"struct myNFTManager.CollectParams","components":[{"name":"lockTokenId","type":"uint256","internalType":"uint256"},{"name":"recipient","type":"address","internalType":"address"},{"name":"amount0Max","type":"uint128","internalType":"uint128"},{"name":"amount1Max","type":"uint128","internalType":"uint128"}]}],"outputs":[{"name":"amount0","type":"uint256","internalType":"uint256"},{"name":"amount1","type":"uint256","internalType":"uint256"}],"stateMutability":"payable"},{"type":"function","name":"decreaseLiquidity","inputs":[{"name":"params","type":"tuple","internalType":"struct myNFTManager.DecreaseLiquidityParams","components":[{"name":"lockTokenId","type":"uint256","internalType":"uint256"},{"name":"liquidity","type":"uint128","internalType":"uint128"},{"name":"amount0Min","type":"uint256","internalType":"uint256"},{"name":"amount1Min","type":"uint256","internalType":"uint256"},{"name":"deadline","type":"uint256","internalType":"uint256"}]}],"outputs":[{"name":"amount0","type":"uint256","internalType":"uint256"},{"name":"amount1","type":"uint256","internalType":"uint256"}],"stateMutability":"payable"},{"type":"function","name":"factory","inputs":[],"outputs":[{"name":"","type":"address","internalType":"address"}],"stateMutability":"view"},{"type":"function","name":"increaseLiquidity","inputs":[{"name":"params","type":"tuple","internalType":"struct myNFTManager.IncreaseLiquidityParams","components":[{"name":"lockTokenId","type":"uint256","internalType":"uint256"},{"name":"amount0Desired","type":"uint256","internalType":"uint256"},{"name":"amount1Desired","type":"uint256","internalType":"uint256"},{"name":"amount0Min","type":"uint256","internalType":"uint256"},{"name":"amount1Min","type":"uint256","internalType":"uint256"},{"name":"deadline","type":"uint256","internalType":"uint256"}]}],"outputs":[{"name":"liquidity","type":"uint128","internalType":"uint128"},{"name":"amount0","type":"uint256","internalType":"uint256"},{"name":"amount1","type":"uint256","internalType":"uint256"}],"stateMutability":"payable"},{"type":"function","name":"mint","inputs":[{"name":"params","type":"tuple","internalType":"struct myNFTManager.MintParams","components":[{"name":"token0","type":"address","internalType":"address"},{"name":"token1","type":"address","internalType":"address"},{"name":"fee","type":"uint24","internalType":"uint24"},{"name":"tickLower","type":"int24","internalType":"int24"},{"name":"tickUpper","type":"int24","internalType":"int24"},{"name":"amount0Desired","type":"uint256","internalType":"uint256"},{"name":"amount1Desired","type":"uint256","internalType":"uint256"},{"name":"amount0Min","type":"uint256","internalType":"uint256"},{"name":"amount1Min","type":"uint256","internalType":"uint256"},{"name":"recipient","type":"address","internalType":"address"},{"name":"deadline","type":"uint256","internalType":"uint256"}]}],"outputs":[{"name":"lockTokenId","type":"uint256","internalType":"uint256"},{"name":"liquidity","type":"uint128","internalType":"uint128"},{"name":"amount0","type":"uint256","internalType":"uint256"},{"name":"amount1","type":"uint256","internalType":"uint256"}],"stateMutability":"payable"},{"type":"function","name":"onERC721Received","inputs":[{"name":"","type":"address","internalType":"address"},{"name":"","type":"address","internalType":"address"},{"name":"","type":"uint256","internalType":"uint256"},{"name":"","type":"bytes","internalType":"bytes"}],"outputs":[{"name":"","type":"bytes4","internalType":"bytes4"}],"stateMutability":"pure"},{"type":"function","name":"positions","inputs":[{"name":"lockTokenId","type":"uint256","internalType":"uint256"}],"outputs":[{"name":"nonce","type":"uint96","internalType":"uint96"},{"name":"operator","type":"address","internalType":"address"},{"name":"token0","type":"address","internalType":"address"},{"name":"token1","type":"address","internalType":"address"},{"name":"fee","type":"uint24","internalType":"uint24"},{"name":"tickLower","type":"int24","internalType":"int24"},{"name":"tickUpper","type":"int24","internalType":"int24"},{"name":"liquidity","type":"uint128","internalType":"uint128"},{"name":"feeGrowthInside0LastX128","type":"uint256","internalType":"uint256"},{"name":"feeGrowthInside1LastX128","type":"uint256","internalType":"uint256"},{"name":"tokensOwed0","type":"uint128","internalType":"uint128"},{"name":"tokensOwed1","type":"uint128","internalType":"uint128"}],"stateMutability":"view"},{"type":"function","name":"safeTransferFrom","inputs":[{"name":"","type":"address","internalType":"address"},{"name":"","type":"address","internalType":"address"},{"name":"","type":"uint256","internalType":"uint256"}],"outputs":[{"name":"","type":"bool","internalType":"bool"}],"stateMutability":"pure"},{"type":"function","name":"setlockTokenId","inputs":[{"name":"_lockTokenId1","type":"uint256","internalType":"uint256"},{"name":"_lockTokenId2","type":"uint256","internalType":"uint256"}],"outputs":[],"stateMutability":"nonpayable"}],"bytecode":{"object":"0x60a060405273c36442b4a4522e871399cd717abdd847ab11fe88608052600180546001600160a01b03191673fe92134da38df8c399a90a540f20187d19216e0517905534801561004e57600080fd5b506040516106c73803806106c783398101604081905261006d916100c1565b600080546001600160a01b039092166001600160a01b0319928316178155805260046020527f17ef568e3e12ab5b9c7254a8d58478811de00f9e6eb34345acd53bf8fd09d3ec8054909116331790556100f1565b6000602082840312156100d357600080fd5b81516001600160a01b03811681146100ea57600080fd5b9392505050565b6080516105b46101136000396000818161021301526102ec01526105b46000f3fe6080604052600436106100915760003560e01c806342966c681161005957806342966c68146101a457806388316456146101b557806399fbab88146101f0578063c45a015514610265578063fc6f78651461029d57600080fd5b80630c49ccbe14610096578063150b7a02146100c6578063219f5d171461010b57806321e74dcf1461014857806342842e0e14610170575b600080fd5b6100ac6100a436600461035b565b506000908190565b604080519283526020830191909152015b60405180910390f35b3480156100d257600080fd5b506100f26100e136600461038f565b630a85bd0160e11b95945050505050565b6040516001600160e01b031990911681526020016100bd565b61012361011936600461042a565b5060009081908190565b604080516001600160801b0390941684526020840192909252908201526060016100bd565b34801561015457600080fd5b5061016e61016336600461043c565b600291909155600355565b005b34801561017c57600080fd5b5061019461018b36600461045e565b60019392505050565b60405190151581526020016100bd565b61016e6101b236600461049a565b50565b6101c86101c33660046104b3565b6102b6565b604080519485526001600160801b0390931660208501529183015260608201526080016100bd565b3480156101fc57600080fd5b5061024d61020b36600461049a565b5060009081907f00000000000000000000000000000000000000000000000000000000000000009081906101f490606319906064906001908790819081908190565b6040516100bd9c9b9a999897969594939291906104c6565b34801561027157600080fd5b50600054610285906001600160a01b031681565b6040516001600160a01b0390911681526020016100bd565b6100ac6102ab36600461056c565b506002546003549091565b6040516323b872dd60e01b815233600482015230602482015260a082013560448201526000908190819081906001600160a01b037f000000000000000000000000000000000000000000000000000000000000000016906323b872dd90606401600060405180830381600087803b15801561033057600080fd5b505af1158015610344573d6000803e3d6000fd5b506000988998506000199750879650945050505050565b600060a0828403121561036d57600080fd5b50919050565b80356001600160a01b038116811461038a57600080fd5b919050565b6000806000806000608086880312156103a757600080fd5b6103b086610373565b94506103be60208701610373565b935060408601359250606086013567ffffffffffffffff808211156103e257600080fd5b818801915088601f8301126103f657600080fd5b81358181111561040557600080fd5b89602082850101111561041757600080fd5b9699959850939650602001949392505050565b600060c0828403121561036d57600080fd5b6000806040838503121561044f57600080fd5b50508035926020909101359150565b60008060006060848603121561047357600080fd5b61047c84610373565b925061048a60208501610373565b9150604084013590509250925092565b6000602082840312156104ac57600080fd5b5035919050565b6000610160828403121561036d57600080fd5b6bffffffffffffffffffffffff8d1681526001600160a01b038c811660208301528b811660408301528a16606082015262ffffff89166080820152600288810b60a083015287900b60c082015261018081016001600160801b03871660e0830152856101008301528461012083015261054b6101408301856001600160801b03169052565b6001600160801b0383166101608301529d9c50505050505050505050505050565b60006080828403121561036d57600080fdfea26469706673582212200ca98b8ee83ba992651f00626d0694028440e9d17418db7b95c1e7deb5388b7664736f6c63430008130033","linkReferences":{}},"methodIdentifiers":{"burn(uint256)":"42966c68","collect((uint256,address,uint128,uint128))":"fc6f7865","decreaseLiquidity((uint256,uint128,uint256,uint256,uint256))":"0c49ccbe","factory()":"c45a0155","increaseLiquidity((uint256,uint256,uint256,uint256,uint256,uint256))":"219f5d17","mint((address,address,uint24,int24,int24,uint256,uint256,uint256,uint256,address,uint256))":"88316456","onERC721Received(address,address,uint256,bytes)":"150b7a02","positions(uint256)":"99fbab88","safeTransferFrom(address,address,uint256)":"42842e0e","setlockTokenId(uint256,uint256)":"21e74dcf"},"id":53}