{"abi":[{"type":"function","name":"isSolved","inputs":[],"outputs":[{"name":"","type":"bool","internalType":"bool"}],"stateMutability":"view"}],"bytecode":{"object":"0x60c0604052737f5c649856f900d15c83741f45ae46f5c685823460805273c36442b4a4522e871399cd717abdd847ab11fe8860a05234801561004057600080fd5b5060805160a0516101506100646000396000608e01526000606301526101506000f3fe608060405234801561001057600080fd5b506004361061002b5760003560e01c806364d98f6e14610030575b600080fd5b61003861004c565b604051901515815260200160405180910390f35b6040516370a0823160e01b81526001600160a01b037f0000000000000000000000000000000000000000000000000000000000000000811660048301526000917f0000000000000000000000000000000000000000000000000000000000000000909116906370a0823190602401602060405180830381865afa1580156100d7573d6000803e3d6000fd5b505050506040513d601f19601f820116820180604052508101906100fb9190610101565b15919050565b60006020828403121561011357600080fd5b505191905056fea2646970667358221220825f66c8479fa92b4b3b5909ed8b08a48aa24ce19895f53dfb6968b4d87f7b3a64736f6c63430008130033","linkReferences":{}},"methodIdentifiers":{"isSolved()":"64d98f6e"},"id":54}